{
  "contractName": "Donation",
  "abi": [
    {
      "anonymous": false,
      "inputs": [
        {
          "indexed": false,
          "internalType": "uint256",
          "name": "id",
          "type": "uint256"
        },
        {
          "indexed": true,
          "internalType": "address",
          "name": "donateur",
          "type": "address"
        },
        {
          "indexed": false,
          "internalType": "uint256",
          "name": "montant",
          "type": "uint256"
        },
        {
          "indexed": false,
          "internalType": "uint256",
          "name": "timestamp",
          "type": "uint256"
        }
      ],
      "name": "DonationReceived",
      "type": "event"
    },
    {
      "inputs": [
        {
          "internalType": "uint256",
          "name": "",
          "type": "uint256"
        }
      ],
      "name": "donations",
      "outputs": [
        {
          "internalType": "uint256",
          "name": "id",
          "type": "uint256"
        },
        {
          "internalType": "address",
          "name": "donateur",
          "type": "address"
        },
        {
          "internalType": "uint256",
          "name": "montant",
          "type": "uint256"
        },
        {
          "internalType": "uint256",
          "name": "timestamp",
          "type": "uint256"
        }
      ],
      "stateMutability": "view",
      "type": "function",
      "constant": true
    },
    {
      "inputs": [
        {
          "internalType": "address",
          "name": "",
          "type": "address"
        },
        {
          "internalType": "uint256",
          "name": "",
          "type": "uint256"
        }
      ],
      "name": "donationsByDonator",
      "outputs": [
        {
          "internalType": "uint256",
          "name": "",
          "type": "uint256"
        }
      ],
      "stateMutability": "view",
      "type": "function",
      "constant": true
    },
    {
      "inputs": [],
      "name": "nextId",
      "outputs": [
        {
          "internalType": "uint256",
          "name": "",
          "type": "uint256"
        }
      ],
      "stateMutability": "view",
      "type": "function",
      "constant": true
    },
    {
      "inputs": [],
      "name": "createDonation",
      "outputs": [],
      "stateMutability": "payable",
      "type": "function",
      "payable": true
    },
    {
      "inputs": [
        {
          "internalType": "address",
          "name": "_donator",
          "type": "address"
        }
      ],
      "name": "getDonationsByDonator",
      "outputs": [
        {
          "internalType": "uint256[]",
          "name": "",
          "type": "uint256[]"
        }
      ],
      "stateMutability": "view",
      "type": "function",
      "constant": true
    },
    {
      "inputs": [
        {
          "internalType": "uint256",
          "name": "_id",
          "type": "uint256"
        }
      ],
      "name": "getDonation",
      "outputs": [
        {
          "components": [
            {
              "internalType": "uint256",
              "name": "id",
              "type": "uint256"
            },
            {
              "internalType": "address",
              "name": "donateur",
              "type": "address"
            },
            {
              "internalType": "uint256",
              "name": "montant",
              "type": "uint256"
            },
            {
              "internalType": "uint256",
              "name": "timestamp",
              "type": "uint256"
            }
          ],
          "internalType": "struct Donation.DonationInfo",
          "name": "",
          "type": "tuple"
        }
      ],
      "stateMutability": "view",
      "type": "function",
      "constant": true
    }
  ],
  "bytecode": "0x6080604052600060025534801561001557600080fd5b50610acb806100256000396000f3fe6080604052600436106100555760003560e01c806308196a9e1461005a57806361b8ce8c146100645780639c10f4fe1461008f578063aeda07f8146100cc578063ef07a81f14610109578063f8626af814610146575b600080fd5b610062610186565b005b34801561007057600080fd5b5061007961036a565b60405161008691906108d2565b60405180910390f35b34801561009b57600080fd5b506100b660048036038101906100b1919061061a565b610370565b6040516100c39190610855565b60405180910390f35b3480156100d857600080fd5b506100f360048036038101906100ee9190610643565b610407565b60405161010091906108d2565b60405180910390f35b34801561011557600080fd5b50610130600480360381019061012b919061067f565b610438565b60405161013d91906108b7565b60405180910390f35b34801561015257600080fd5b5061016d6004803603810190610168919061067f565b610552565b60405161017d94939291906108ed565b60405180910390f35b600034116101c9576040517f08c379a00000000000000000000000000000000000000000000000000000000081526004016101c090610877565b60405180910390fd5b6000604051806080016040528060025481526020013373ffffffffffffffffffffffffffffffffffffffff1681526020013481526020014281525090806001815401808255809150506001900390600052602060002090600402016000909190919091506000820151816000015560208201518160010160006101000a81548173ffffffffffffffffffffffffffffffffffffffff021916908373ffffffffffffffffffffffffffffffffffffffff16021790555060408201518160020155606082015181600301555050600160003373ffffffffffffffffffffffffffffffffffffffff1673ffffffffffffffffffffffffffffffffffffffff16815260200190815260200160002060025490806001815401808255809150506001900390600052602060002001600090919091909150553373ffffffffffffffffffffffffffffffffffffffff167f3dbea1b4ce5f95137fdcac9b1d685825c3d70ace830df1ca5a181d3887add410600254344260405161034893929190610932565b60405180910390a260026000815480929190610363906109ef565b9190505550565b60025481565b6060600160008373ffffffffffffffffffffffffffffffffffffffff1673ffffffffffffffffffffffffffffffffffffffff1681526020019081526020016000208054806020026020016040519081016040528092919081815260200182805480156103fb57602002820191906000526020600020905b8154815260200190600101908083116103e7575b50505050509050919050565b6001602052816000526040600020818154811061042357600080fd5b90600052602060002001600091509150505481565b6104406105b2565b6002548210610484576040517f08c379a000000000000000000000000000000000000000000000000000000000815260040161047b90610897565b60405180910390fd5b600082815481106104be577f4e487b7100000000000000000000000000000000000000000000000000000000600052603260045260246000fd5b9060005260206000209060040201604051806080016040529081600082015481526020016001820160009054906101000a900473ffffffffffffffffffffffffffffffffffffffff1673ffffffffffffffffffffffffffffffffffffffff1673ffffffffffffffffffffffffffffffffffffffff168152602001600282015481526020016003820154815250509050919050565b6000818154811061056257600080fd5b90600052602060002090600402016000915090508060000154908060010160009054906101000a900473ffffffffffffffffffffffffffffffffffffffff16908060020154908060030154905084565b604051806080016040528060008152602001600073ffffffffffffffffffffffffffffffffffffffff16815260200160008152602001600081525090565b6000813590506105ff81610a67565b92915050565b60008135905061061481610a7e565b92915050565b60006020828403121561062c57600080fd5b600061063a848285016105f0565b91505092915050565b6000806040838503121561065657600080fd5b6000610664858286016105f0565b925050602061067585828601610605565b9150509250929050565b60006020828403121561069157600080fd5b600061069f84828501610605565b91505092915050565b60006106b48383610837565b60208301905092915050565b6106c9816109b3565b82525050565b6106d8816109b3565b82525050565b60006106e982610979565b6106f38185610991565b93506106fe83610969565b8060005b8381101561072f57815161071688826106a8565b975061072183610984565b925050600181019050610702565b5085935050505092915050565b6000610749602c836109a2565b91507f4c6120646f6e6174696f6e20646f697420c3aa74726520737570c3a97269657560008301527f726520c3a0207ac3a9726f2e00000000000000000000000000000000000000006020830152604082019050919050565b60006107af6018836109a2565b91507f494420646520646f6e6174696f6e20696e76616c6964652e00000000000000006000830152602082019050919050565b6080820160008201516107f86000850182610837565b50602082015161080b60208501826106c0565b50604082015161081e6040850182610837565b5060608201516108316060850182610837565b50505050565b610840816109e5565b82525050565b61084f816109e5565b82525050565b6000602082019050818103600083015261086f81846106de565b905092915050565b600060208201905081810360008301526108908161073c565b9050919050565b600060208201905081810360008301526108b0816107a2565b9050919050565b60006080820190506108cc60008301846107e2565b92915050565b60006020820190506108e76000830184610846565b92915050565b60006080820190506109026000830187610846565b61090f60208301866106cf565b61091c6040830185610846565b6109296060830184610846565b95945050505050565b60006060820190506109476000830186610846565b6109546020830185610846565b6109616040830184610846565b949350505050565b6000819050602082019050919050565b600081519050919050565b6000602082019050919050565b600082825260208201905092915050565b600082825260208201905092915050565b60006109be826109c5565b9050919050565b600073ffffffffffffffffffffffffffffffffffffffff82169050919050565b6000819050919050565b60006109fa826109e5565b91507fffffffffffffffffffffffffffffffffffffffffffffffffffffffffffffffff821415610a2d57610a2c610a38565b5b600182019050919050565b7f4e487b7100000000000000000000000000000000000000000000000000000000600052601160045260246000fd5b610a70816109b3565b8114610a7b57600080fd5b50565b610a87816109e5565b8114610a9257600080fd5b5056fea2646970667358221220b8654d79bad2009d980fefc3328bfa4d1a01e885e960eb1b4f9907c916d6656b64736f6c63430008000033",
  "immutableReferences": {},
  "source": "// SPDX-License-Identifier: MIT\r\npragma solidity ^0.8.0;\r\n\r\ncontract Donation {\r\n    struct DonationInfo {\r\n        uint id;\r\n        address donateur;\r\n        uint montant;\r\n        uint timestamp;\r\n    }\r\n\r\n    DonationInfo[] public donations;\r\n    mapping(address => uint[]) public donationsByDonator;\r\n\r\n    uint public nextId = 0;\r\n\r\n    event DonationReceived(uint id, address indexed donateur, uint montant, uint timestamp);\r\n\r\n    function createDonation() external payable {\r\n        require(msg.value > 0, unicode\"La donation doit tre suprieure  zro.\");\r\n\r\n        donations.push(DonationInfo({\r\n            id: nextId,\r\n            donateur: msg.sender,\r\n            montant: msg.value,\r\n            timestamp: block.timestamp\r\n        }));\r\n\r\n        donationsByDonator[msg.sender].push(nextId);\r\n\r\n        emit DonationReceived(nextId, msg.sender, msg.value, block.timestamp);\r\n\r\n        nextId++;\r\n    }\r\n\r\n    function getDonationsByDonator(address _donator) external view returns (uint[] memory) {\r\n        return donationsByDonator[_donator];\r\n    }\r\n\r\n    function getDonation(uint _id) external view returns (DonationInfo memory) {\r\n        require(_id < nextId, \"ID de donation invalide.\");\r\n        return donations[_id];\r\n    }\r\n}\r\n",
  "sourcePath": "C:\\Users\\micha\\OneDrive\\Documents\\Blockchain\\finalBCproject\\contracts\\donation.sol",
  "compiler": {
    "name": "solc",
    "version": "0.8.0+commit.c7dfd78e.Emscripten.clang"
  },
  "schemaVersion": "3.4.16",
  "updatedAt": "2024-07-05T09:23:13.356Z",
  "networkType": "ethereum",
  "devdoc": {
    "kind": "dev",
    "methods": {},
    "version": 1
  },
  "userdoc": {
    "kind": "user",
    "methods": {},
    "version": 1
  }
}